{
  "contractName": "Content",
  "abi": [
    {
      "inputs": [],
      "stateMutability": "nonpayable",
      "type": "constructor"
    },
    {
      "anonymous": false,
      "inputs": [
        {
          "indexed": true,
          "internalType": "address",
          "name": "owner",
          "type": "address"
        },
        {
          "indexed": true,
          "internalType": "address",
          "name": "approved",
          "type": "address"
        },
        {
          "indexed": true,
          "internalType": "uint256",
          "name": "tokenId",
          "type": "uint256"
        }
      ],
      "name": "Approval",
      "type": "event"
    },
    {
      "anonymous": false,
      "inputs": [
        {
          "indexed": true,
          "internalType": "address",
          "name": "owner",
          "type": "address"
        },
        {
          "indexed": true,
          "internalType": "address",
          "name": "operator",
          "type": "address"
        },
        {
          "indexed": false,
          "internalType": "bool",
          "name": "approved",
          "type": "bool"
        }
      ],
      "name": "ApprovalForAll",
      "type": "event"
    },
    {
      "anonymous": false,
      "inputs": [
        {
          "indexed": true,
          "internalType": "address",
          "name": "previousOwner",
          "type": "address"
        },
        {
          "indexed": true,
          "internalType": "address",
          "name": "newOwner",
          "type": "address"
        }
      ],
      "name": "OwnershipTransferred",
      "type": "event"
    },
    {
      "anonymous": false,
      "inputs": [
        {
          "indexed": false,
          "internalType": "address",
          "name": "account",
          "type": "address"
        }
      ],
      "name": "Paused",
      "type": "event"
    },
    {
      "anonymous": false,
      "inputs": [
        {
          "indexed": true,
          "internalType": "address",
          "name": "from",
          "type": "address"
        },
        {
          "indexed": true,
          "internalType": "address",
          "name": "to",
          "type": "address"
        },
        {
          "indexed": true,
          "internalType": "uint256",
          "name": "tokenId",
          "type": "uint256"
        }
      ],
      "name": "Transfer",
      "type": "event"
    },
    {
      "anonymous": false,
      "inputs": [
        {
          "indexed": false,
          "internalType": "address",
          "name": "account",
          "type": "address"
        }
      ],
      "name": "Unpaused",
      "type": "event"
    },
    {
      "inputs": [
        {
          "internalType": "address",
          "name": "to",
          "type": "address"
        },
        {
          "internalType": "uint256",
          "name": "tokenId",
          "type": "uint256"
        }
      ],
      "name": "approve",
      "outputs": [],
      "stateMutability": "nonpayable",
      "type": "function"
    },
    {
      "inputs": [
        {
          "internalType": "address",
          "name": "owner",
          "type": "address"
        }
      ],
      "name": "balanceOf",
      "outputs": [
        {
          "internalType": "uint256",
          "name": "",
          "type": "uint256"
        }
      ],
      "stateMutability": "view",
      "type": "function",
      "constant": true
    },
    {
      "inputs": [
        {
          "internalType": "uint256",
          "name": "tokenId",
          "type": "uint256"
        }
      ],
      "name": "getApproved",
      "outputs": [
        {
          "internalType": "address",
          "name": "",
          "type": "address"
        }
      ],
      "stateMutability": "view",
      "type": "function",
      "constant": true
    },
    {
      "inputs": [
        {
          "internalType": "address",
          "name": "owner",
          "type": "address"
        },
        {
          "internalType": "address",
          "name": "operator",
          "type": "address"
        }
      ],
      "name": "isApprovedForAll",
      "outputs": [
        {
          "internalType": "bool",
          "name": "",
          "type": "bool"
        }
      ],
      "stateMutability": "view",
      "type": "function",
      "constant": true
    },
    {
      "inputs": [],
      "name": "name",
      "outputs": [
        {
          "internalType": "string",
          "name": "",
          "type": "string"
        }
      ],
      "stateMutability": "view",
      "type": "function",
      "constant": true
    },
    {
      "inputs": [],
      "name": "owner",
      "outputs": [
        {
          "internalType": "address",
          "name": "",
          "type": "address"
        }
      ],
      "stateMutability": "view",
      "type": "function",
      "constant": true
    },
    {
      "inputs": [
        {
          "internalType": "uint256",
          "name": "tokenId",
          "type": "uint256"
        }
      ],
      "name": "ownerOf",
      "outputs": [
        {
          "internalType": "address",
          "name": "",
          "type": "address"
        }
      ],
      "stateMutability": "view",
      "type": "function",
      "constant": true
    },
    {
      "inputs": [],
      "name": "paused",
      "outputs": [
        {
          "internalType": "bool",
          "name": "",
          "type": "bool"
        }
      ],
      "stateMutability": "view",
      "type": "function",
      "constant": true
    },
    {
      "inputs": [],
      "name": "renounceOwnership",
      "outputs": [],
      "stateMutability": "nonpayable",
      "type": "function"
    },
    {
      "inputs": [
        {
          "internalType": "address",
          "name": "from",
          "type": "address"
        },
        {
          "internalType": "address",
          "name": "to",
          "type": "address"
        },
        {
          "internalType": "uint256",
          "name": "tokenId",
          "type": "uint256"
        }
      ],
      "name": "safeTransferFrom",
      "outputs": [],
      "stateMutability": "nonpayable",
      "type": "function"
    },
    {
      "inputs": [
        {
          "internalType": "address",
          "name": "from",
          "type": "address"
        },
        {
          "internalType": "address",
          "name": "to",
          "type": "address"
        },
        {
          "internalType": "uint256",
          "name": "tokenId",
          "type": "uint256"
        },
        {
          "internalType": "bytes",
          "name": "_data",
          "type": "bytes"
        }
      ],
      "name": "safeTransferFrom",
      "outputs": [],
      "stateMutability": "nonpayable",
      "type": "function"
    },
    {
      "inputs": [
        {
          "internalType": "address",
          "name": "operator",
          "type": "address"
        },
        {
          "internalType": "bool",
          "name": "approved",
          "type": "bool"
        }
      ],
      "name": "setApprovalForAll",
      "outputs": [],
      "stateMutability": "nonpayable",
      "type": "function"
    },
    {
      "inputs": [
        {
          "internalType": "bytes4",
          "name": "interfaceId",
          "type": "bytes4"
        }
      ],
      "name": "supportsInterface",
      "outputs": [
        {
          "internalType": "bool",
          "name": "",
          "type": "bool"
        }
      ],
      "stateMutability": "view",
      "type": "function",
      "constant": true
    },
    {
      "inputs": [],
      "name": "symbol",
      "outputs": [
        {
          "internalType": "string",
          "name": "",
          "type": "string"
        }
      ],
      "stateMutability": "view",
      "type": "function",
      "constant": true
    },
    {
      "inputs": [
        {
          "internalType": "uint256",
          "name": "tokenId",
          "type": "uint256"
        }
      ],
      "name": "tokenURI",
      "outputs": [
        {
          "internalType": "string",
          "name": "",
          "type": "string"
        }
      ],
      "stateMutability": "view",
      "type": "function",
      "constant": true
    },
    {
      "inputs": [
        {
          "internalType": "address",
          "name": "from",
          "type": "address"
        },
        {
          "internalType": "address",
          "name": "to",
          "type": "address"
        },
        {
          "internalType": "uint256",
          "name": "tokenId",
          "type": "uint256"
        }
      ],
      "name": "transferFrom",
      "outputs": [],
      "stateMutability": "nonpayable",
      "type": "function"
    },
    {
      "inputs": [
        {
          "internalType": "address",
          "name": "newOwner",
          "type": "address"
        }
      ],
      "name": "transferOwnership",
      "outputs": [],
      "stateMutability": "nonpayable",
      "type": "function"
    },
    {
      "stateMutability": "payable",
      "type": "receive",
      "payable": true
    },
    {
      "inputs": [
        {
          "internalType": "string",
          "name": "tokenURI",
          "type": "string"
        },
        {
          "internalType": "bytes32",
          "name": "pricingModel",
          "type": "bytes32"
        },
        {
          "internalType": "uint256",
          "name": "price",
          "type": "uint256"
        },
        {
          "internalType": "string",
          "name": "stakedToken",
          "type": "string"
        },
        {
          "internalType": "uint256",
          "name": "staked",
          "type": "uint256"
        },
        {
          "internalType": "string[]",
          "name": "shards",
          "type": "string[]"
        },
        {
          "internalType": "uint256",
          "name": "keyquorum",
          "type": "uint256"
        }
      ],
      "name": "createContent",
      "outputs": [
        {
          "internalType": "uint256",
          "name": "",
          "type": "uint256"
        }
      ],
      "stateMutability": "nonpayable",
      "type": "function"
    },
    {
      "inputs": [
        {
          "internalType": "address",
          "name": "owner",
          "type": "address"
        },
        {
          "internalType": "uint256",
          "name": "index",
          "type": "uint256"
        }
      ],
      "name": "tokenOfOwnerByIndex",
      "outputs": [
        {
          "internalType": "uint256",
          "name": "",
          "type": "uint256"
        }
      ],
      "stateMutability": "view",
      "type": "function",
      "constant": true
    },
    {
      "inputs": [],
      "name": "totalSupply",
      "outputs": [
        {
          "internalType": "uint256",
          "name": "",
          "type": "uint256"
        }
      ],
      "stateMutability": "view",
      "type": "function",
      "constant": true
    },
    {
      "inputs": [
        {
          "internalType": "uint256",
          "name": "index",
          "type": "uint256"
        }
      ],
      "name": "tokenByIndex",
      "outputs": [
        {
          "internalType": "uint256",
          "name": "",
          "type": "uint256"
        }
      ],
      "stateMutability": "view",
      "type": "function",
      "constant": true
    },
    {
      "inputs": [
        {
          "internalType": "uint256",
          "name": "contentId",
          "type": "uint256"
        },
        {
          "internalType": "bytes32",
          "name": "category",
          "type": "bytes32"
        }
      ],
      "name": "removeContent",
      "outputs": [],
      "stateMutability": "nonpayable",
      "type": "function"
    },
    {
      "inputs": [
        {
          "internalType": "address",
          "name": "_token",
          "type": "address"
        }
      ],
      "name": "supportTokens",
      "outputs": [],
      "stateMutability": "nonpayable",
      "type": "function"
    },
    {
      "inputs": [
        {
          "internalType": "address",
          "name": "_token",
          "type": "address"
        }
      ],
      "name": "checkSupportForToken",
      "outputs": [
        {
          "internalType": "bool",
          "name": "",
          "type": "bool"
        }
      ],
      "stateMutability": "view",
      "type": "function",
      "constant": true
    },
    {
      "inputs": [
        {
          "internalType": "address",
          "name": "_token",
          "type": "address"
        },
        {
          "internalType": "uint256",
          "name": "_amount",
          "type": "uint256"
        }
      ],
      "name": "stake",
      "outputs": [],
      "stateMutability": "nonpayable",
      "type": "function"
    },
    {
      "inputs": [
        {
          "internalType": "bytes32",
          "name": "category",
          "type": "bytes32"
        }
      ],
      "name": "fetchContentByCategory",
      "outputs": [
        {
          "internalType": "uint256[]",
          "name": "",
          "type": "uint256[]"
        }
      ],
      "stateMutability": "view",
      "type": "function",
      "constant": true
    },
    {
      "inputs": [
        {
          "internalType": "uint256",
          "name": "contentId",
          "type": "uint256"
        }
      ],
      "name": "subscribe",
      "outputs": [],
      "stateMutability": "nonpayable",
      "type": "function"
    },
    {
      "inputs": [
        {
          "internalType": "uint256",
          "name": "contentId",
          "type": "uint256"
        }
      ],
      "name": "viewContent",
      "outputs": [
        {
          "internalType": "string[]",
          "name": "",
          "type": "string[]"
        }
      ],
      "stateMutability": "nonpayable",
      "type": "function"
    },
    {
      "inputs": [
        {
          "internalType": "uint256",
          "name": "adId",
          "type": "uint256"
        },
        {
          "internalType": "uint256",
          "name": "contentId",
          "type": "uint256"
        }
      ],
      "name": "viewAd",
      "outputs": [
        {
          "internalType": "string[]",
          "name": "",
          "type": "string[]"
        }
      ],
      "stateMutability": "nonpayable",
      "type": "function"
    },
    {
      "inputs": [
        {
          "internalType": "address",
          "name": "sharedWith",
          "type": "address"
        },
        {
          "internalType": "uint256",
          "name": "contentId",
          "type": "uint256"
        }
      ],
      "name": "shareContent",
      "outputs": [],
      "stateMutability": "nonpayable",
      "type": "function"
    },
    {
      "inputs": [
        {
          "internalType": "bytes32",
          "name": "category",
          "type": "bytes32"
        }
      ],
      "name": "fetchEarningsbyCategory",
      "outputs": [
        {
          "internalType": "uint256",
          "name": "",
          "type": "uint256"
        }
      ],
      "stateMutability": "view",
      "type": "function",
      "constant": true
    },
    {
      "inputs": [
        {
          "internalType": "uint256",
          "name": "contentId",
          "type": "uint256"
        }
      ],
      "name": "fetchEarningsForItem",
      "outputs": [
        {
          "internalType": "uint256",
          "name": "",
          "type": "uint256"
        }
      ],
      "stateMutability": "view",
      "type": "function",
      "constant": true
    },
    {
      "inputs": [
        {
          "internalType": "uint256",
          "name": "adId",
          "type": "uint256"
        }
      ],
      "name": "fetchExpensesForAd",
      "outputs": [
        {
          "internalType": "uint256",
          "name": "",
          "type": "uint256"
        }
      ],
      "stateMutability": "view",
      "type": "function",
      "constant": true
    },
    {
      "inputs": [
        {
          "internalType": "uint256",
          "name": "contentId",
          "type": "uint256"
        }
      ],
      "name": "viewPerformance",
      "outputs": [
        {
          "internalType": "uint256",
          "name": "",
          "type": "uint256"
        },
        {
          "internalType": "uint256",
          "name": "",
          "type": "uint256"
        },
        {
          "internalType": "uint256",
          "name": "",
          "type": "uint256"
        }
      ],
      "stateMutability": "view",
      "type": "function",
      "constant": true
    },
    {
      "inputs": [
        {
          "internalType": "uint256",
          "name": "adId",
          "type": "uint256"
        }
      ],
      "name": "viewDelivery",
      "outputs": [
        {
          "internalType": "uint256[]",
          "name": "",
          "type": "uint256[]"
        }
      ],
      "stateMutability": "view",
      "type": "function",
      "constant": true
    },
    {
      "inputs": [
        {
          "internalType": "uint256",
          "name": "time",
          "type": "uint256"
        }
      ],
      "name": "setLicenseTerm",
      "outputs": [],
      "stateMutability": "nonpayable",
      "type": "function"
    },
    {
      "inputs": [],
      "name": "pause",
      "outputs": [],
      "stateMutability": "nonpayable",
      "type": "function"
    },
    {
      "inputs": [],
      "name": "unpause",
      "outputs": [],
      "stateMutability": "nonpayable",
      "type": "function"
    }
  ],
  "bytecode": "0x60806040523480156200001157600080fd5b50604080518082018252600c81526b4c756b75702053747265616d60a01b60208083019182528351808501909452600584526404c554b55560dc1b9084015281519192916200006391600091620000ff565b50805162000079906001906020840190620000ff565b5050506200009662000090620000a960201b60201c565b620000ad565b6007805460ff60a01b19169055620001e2565b3390565b600780546001600160a01b038381166001600160a01b0319831681179093556040519116919082907f8be0079c531659141344cd1fd0a4f28419497f9722a3daafe3b4186f6b6457e090600090a35050565b8280546200010d90620001a5565b90600052602060002090601f0160209004810192826200013157600085556200017c565b82601f106200014c57805160ff19168380011785556200017c565b828001600101855582156200017c579182015b828111156200017c5782518255916020019190600101906200015f565b506200018a9291506200018e565b5090565b5b808211156200018a57600081556001016200018f565b600281046001821680620001ba57607f821691505b60208210811415620001dc57634e487b7160e01b600052602260045260246000fd5b50919050565b61371880620001f26000396000f3fe6080604052600436106102295760003560e01c80636bbf52fd1161012357806395d89b41116100ab578063c87b56dd1161006f578063c87b56dd1461076a578063d7e21a211461078a578063e49375d6146107aa578063e985e9c5146107ca578063f2fde38b146107ea57610335565b806395d89b41146106d5578063a22cb465146106ea578063adc9772e1461070a578063b88d4fde1461072a578063be44bdfa1461074a57610335565b80638456cb59116100f25780638456cb591461064b5780638a0737a0146106605780638be3e06f146106805780638da5cb5b146106a05780638e7fdb22146106b557610335565b80636bbf52fd146105c957806370a08231146105e9578063715018a6146106095780637849dac31461061e57610335565b80632995baaa116101b15780634ea4c0f5116101755780634ea4c0f5146105345780634f6ccce7146105545780635c975abb146105745780635d4f5b1c146105895780636352211e146105a957610335565b80632995baaa146104905780632d43a794146104bf5780632f745c59146104df5780633f4ba83a146104ff57806342842e0e1461051457610335565b8063095ea7b3116101f8578063095ea7b3146103ec5780630f574ba71461040e57806318160ddd1461042e57806321ba93841461045057806323b872dd1461047057610335565b806301933cc21461033a57806301ffc9a71461037057806306fdde031461039d578063081812fc146103bf57610335565b36610335573461023857600080fd5b61024061080a565b1561024a57600080fd5b33600090815260156020526040908190209051610281919061026b90612e0e565b908152604051908190036020019020543461081a565b3360009081526015602052604090819020905161029d90612e0e565b908152604080516020928190038301902092909255336000908152600d90915290812054158015906102d05750600c5415155b156102d9575060015b8061033257600c8054336000818152600d60205260408120839055600183018455929092527fdf6966c971051c3d54ec59162606531493a51404a002842f56009d7e5cf4a8c70180546001600160a01b03191690911790555b50005b600080fd5b34801561034657600080fd5b5061035a610355366004612ba7565b61082f565b6040516103679190612f05565b60405180910390f35b34801561037c57600080fd5b5061039061038b366004612bbf565b610892565b6040516103679190612f49565b3480156103a957600080fd5b506103b26108d2565b6040516103679190612f54565b3480156103cb57600080fd5b506103df6103da366004612ba7565b610964565b6040516103679190612e30565b3480156103f857600080fd5b5061040c610407366004612b62565b6109b0565b005b34801561041a57600080fd5b5061040c610429366004612ba7565b610a48565b34801561043a57600080fd5b50610443610c07565b6040516103679190613532565b34801561045c57600080fd5b5061040c61046b366004612ba7565b610c0d565b34801561047c57600080fd5b5061040c61048b366004612a78565b610c37565b34801561049c57600080fd5b506104b06104ab366004612ba7565b610c6f565b6040516103679392919061353b565b3480156104cb57600080fd5b506104436104da366004612ba7565b610c8e565b3480156104eb57600080fd5b506104436104fa366004612b62565b610cab565b34801561050b57600080fd5b5061040c610cfd565b34801561052057600080fd5b5061040c61052f366004612a78565b610d2c565b34801561054057600080fd5b5061044361054f366004612ba7565b610d47565b34801561056057600080fd5b5061044361056f366004612ba7565b610d64565b34801561058057600080fd5b5061039061080a565b34801561059557600080fd5b506103906105a4366004612a2c565b610dbb565b3480156105b557600080fd5b506103df6105c4366004612ba7565b610df8565b3480156105d557600080fd5b506104436105e4366004612c6a565b610e2d565b3480156105f557600080fd5b50610443610604366004612a2c565b610fec565b34801561061557600080fd5b5061040c611030565b34801561062a57600080fd5b5061063e610639366004612d76565b611079565b6040516103679190612ea5565b34801561065757600080fd5b5061040c611441565b34801561066c57600080fd5b5061040c61067b366004612a2c565b61146e565b34801561068c57600080fd5b5061063e61069b366004612ba7565b6114f4565b3480156106ac57600080fd5b506103df6117a3565b3480156106c157600080fd5b506104436106d0366004612ba7565b6117b2565b3480156106e157600080fd5b506103b26117cf565b3480156106f657600080fd5b5061040c610705366004612b2c565b6117de565b34801561071657600080fd5b5061040c610725366004612b62565b6117f4565b34801561073657600080fd5b5061040c610745366004612ab3565b611b69565b34801561075657600080fd5b5061040c610765366004612b62565b611ba8565b34801561077657600080fd5b506103b2610785366004612ba7565b611c36565b34801561079657600080fd5b5061035a6107a5366004612ba7565b611d57565b3480156107b657600080fd5b5061040c6107c5366004612d76565b611dc0565b3480156107d657600080fd5b506103906107e5366004612a46565b611e73565b3480156107f657600080fd5b5061040c610805366004612a2c565b611ea1565b600754600160a01b900460ff1690565b600061082682846135a3565b90505b92915050565b60008181526013602090815260409182902080548351818402810184019094528084526060939283018282801561088557602002820191906000526020600020905b815481526020019060010190808311610871575b505050505090505b919050565b60006001600160e01b031982166380ac58cd60e01b14806108c357506001600160e01b03198216635b5e139f60e01b145b80610829575061082982611f0f565b6060600080546108e190613612565b80601f016020809104026020016040519081016040528092919081815260200182805461090d90613612565b801561095a5780601f1061092f5761010080835404028352916020019161095a565b820191906000526020600020905b81548152906001019060200180831161093d57829003601f168201915b5050505050905090565b600061096f82611f28565b6109945760405162461bcd60e51b815260040161098b90613350565b60405180910390fd5b506000908152600460205260409020546001600160a01b031690565b60006109bb82610df8565b9050806001600160a01b0316836001600160a01b031614156109ef5760405162461bcd60e51b815260040161098b90613469565b806001600160a01b0316610a01611f45565b6001600160a01b03161480610a1d5750610a1d816107e5611f45565b610a395760405162461bcd60e51b815260040161098b9061318c565b610a438383611f49565b505050565b60008181526014602090815260408083206228282b60e91b84528252808320543384526016909252918290209151909190610a8290612e1f565b9081526020016040518091039020541115610c0457600081815260196020908152604080832033845282528083204290558383526012909152902060020154610acc90600161081a565b600082815260126020526040812060020191909155610b3690601a90610af184610df8565b6001600160a01b03168152602080820192909252604090810160009081206228282b60e91b80835290845282822054868352601485528383209183529352205461081a565b601a6000610b4384610df8565b6001600160a01b03166001600160a01b0316815260200190815260200160002060006228282b60e91b815260200190815260200160002081905550610bcf601b6000610b8e84610df8565b6001600160a01b0316815260208082019290925260409081016000908120858252835281812054601484528282206228282b60e91b8352909352205461081a565b601b6000610bdc84610df8565b6001600160a01b03168152602080820192909252604090810160009081208582529092529020555b50565b600e5490565b610c156117a3565b6001600160a01b0316336001600160a01b031614610c3257600080fd5b600955565b610c48610c42611f45565b82611fb7565b610c645760405162461bcd60e51b815260040161098b906134e1565b610a43838383612034565b6000908152601260205260409020805460018201546002909201549092565b336000908152601c60209081526040808320938352929052205490565b6000610cb683610fec565b8210610cd45760405162461bcd60e51b815260040161098b906134aa565b506001600160a01b03919091166000908152601060209081526040808320938352929052205490565b610d056117a3565b6001600160a01b0316336001600160a01b031614610d2257600080fd5b610d2a612161565b565b610a4383838360405180602001604052806000815250611b69565b336000908152601b60209081526040808320938352929052205490565b600e546000908210610d885760405162461bcd60e51b815260040161098b906130df565b600e8281548110610da957634e487b7160e01b600052603260045260246000fd5b90600052602060002001549050919050565b6001600160a01b0381166000908152600b602052604081205415801590610de35750600a5415155b15610df05750600161088d565b50600061088d565b6000818152600260205260408120546001600160a01b0316806108295760405162461bcd60e51b815260040161098b90613233565b336000908152601560205260408082209051859190610e4d908890612dc3565b908152604051908190036020019020541015610e6857600080fd5b610e7260086121d2565b6000610e7e60086121db565b9050610e8a33826121df565b610e94818a6122be565b600088815260136020908152604080832080546001818101835591855283852001859055600e8054868652600f855283862081905591820190557fbb7b4a454dc3493923482f07822329ed19e8244eff582cc204f8554c3620c3fd01849055338084526010909252822083929091610f0b90610fec565b8152602081019190915260400160002055610f2533610fec565b600082815260116020908152604080832093909355601481528282208b835281528282208a9055338252601690528190209051869190610f66908990612dc3565b908152604080516020928190038301902092909255600083815260178252919091208551610f969287019061284f565b5060008181526018602090815260408083208690553383526015909152908190209051610fdf9190610fc9908990612dc3565b9081526040519081900360200190205486612302565b5098975050505050505050565b60006001600160a01b0382166110145760405162461bcd60e51b815260040161098b906131e9565b506001600160a01b031660009081526003602052604090205490565b611038611f45565b6001600160a01b03166110496117a3565b6001600160a01b03161461106f5760405162461bcd60e51b815260040161098b9061339c565b610d2a600061230e565b600082815260146020908152604080832061105160f21b8452909152902054606090158015906110c757506000828152601460209081526040808320634652454560e01b8452909152902054155b156114105760008281526019602090815260408083203384529091529020546009546110f3919061081a565b4211156114105760008381526012602052604090205461111490600161081a565b60008481526012602052604081209190915561118090601a9061113685610df8565b6001600160a01b0316815260208082019290925260409081016000908120634652454560e01b82528352818120548782526014845282822061105160f21b8352909352205461081a565b601a600061118d85610df8565b6001600160a01b03166001600160a01b031681526020019081526020016000206000634652454560e01b81526020019081526020016000208190555061121c601b60006111d985610df8565b6001600160a01b03168152602080820192909252604090810160009081208682528352818120548782526014845282822061105160f21b8352909352205461081a565b601b600061122985610df8565b6001600160a01b03166001600160a01b031681526020019081526020016000206000848152602001908152602001600020819055506112ae601c600061126e86610df8565b6001600160a01b03168152602080820192909252604090810160009081208782528352818120546014845282822061105160f21b8352909352205461081a565b601c60006112bb86610df8565b6001600160a01b03166001600160a01b03168152602001908152602001600020600085815260200190815260200160002081905550601e60006112fd85610df8565b6001600160a01b0316815260208082019290925260409081016000908120868252835281812080546001810182559082528382200185905585815260178352818120805483518186028101860190945280845292939092919084015b8282101561140557838290600052602060002001805461137890613612565b80601f01602080910402602001604051908101604052809291908181526020018280546113a490613612565b80156113f15780601f106113c6576101008083540402835291602001916113f1565b820191906000526020600020905b8154815290600101906020018083116113d457829003601f168201915b505050505081526020019060010190611359565b505050509050610829565b60408051600180825281830190925290816020015b6060815260200190600190039081611425579050509392505050565b6114496117a3565b6001600160a01b0316336001600160a01b03161461146657600080fd5b610d2a612360565b6114766117a3565b6001600160a01b0316336001600160a01b03161461149357600080fd5b600a80546001600160a01b039092166000818152600b60205260408120849055600184018355919091527fc65a7bb8d6351c1cf70c95a316cc6a92839c986682d98bc35f958f4883f9d2a890910180546001600160a01b0319169091179055565b60008181526014602090815260408083206228282b60e91b845290915290205460609015611654576000828152601960209081526040808320338452909152902054600954611543919061081a565b42111561164f5760008281526012602052604090205461156490600161081a565b6000838152601260209081526040808320939093556017815282822080548451818402810184019095528085529092909184015b828210156116445783829060005260206000200180546115b790613612565b80601f01602080910402602001604051908101604052809291908181526020018280546115e390613612565b80156116305780601f1061160557610100808354040283529160200191611630565b820191906000526020600020905b81548152906001019060200180831161161357829003601f168201915b505050505081526020019060010190611598565b50505050905061088d565b611773565b6000828152601460209081526040808320634652454560e01b84529091529020546117735760008281526012602052604090205461169390600161081a565b6000838152601260209081526040808320939093556017815282822080548451818402810184019095528085529092909184015b828210156116445783829060005260206000200180546116e690613612565b80601f016020809104026020016040519081016040528092919081815260200182805461171290613612565b801561175f5780601f106117345761010080835404028352916020019161175f565b820191906000526020600020905b81548152906001019060200180831161174257829003601f168201915b5050505050815260200190600101906116c7565b60408051600180825281830190925290816020015b60608152602001906001900390816117885790505092915050565b6007546001600160a01b031690565b336000908152601a60209081526040808320938352929052205490565b6060600180546108e190613612565b6117f06117e9611f45565b83836123c1565b5050565b6117fc61080a565b1561180657600080fd5b6001600160a01b0382166000908152600b60205260408120541580159061182e5750600a5415155b15611837575060015b8015610a43576040516323b872dd60e01b81526001600160a01b038416906323b872dd9061186d90339030908790600401612e44565b602060405180830381600087803b15801561188757600080fd5b505af115801561189b573d6000803e3d6000fd5b505050506040513d601f19601f820116820180604052508101906118bf9190612b8b565b15610a43573360009081526015602052604080822081516306fdde0360e01b815291516119729391926001600160a01b038816926306fdde0392600480840193829003018186803b15801561191357600080fd5b505afa158015611927573d6000803e3d6000fd5b505050506040513d6000823e601f3d908101601f1916820160405261194f9190810190612bf7565b60405161195c9190612dc3565b908152604051908190036020019020548361081a565b3360009081526015602052604080822081516306fdde0360e01b8152915190926001600160a01b038816926306fdde039260048083019392829003018186803b1580156119be57600080fd5b505afa1580156119d2573d6000803e3d6000fd5b505050506040513d6000823e601f3d908101601f191682016040526119fa9190810190612bf7565b604051611a079190612dc3565b9081526040805191829003602090810183209390935533600090815260159093528083206306fdde0360e01b83529051869391926001600160a01b038516926306fdde0392600480840193829003018186803b158015611a6657600080fd5b505afa158015611a7a573d6000803e3d6000fd5b505050506040513d6000823e601f3d908101601f19168201604052611aa29190810190612bf7565b604051611aaf9190612dc3565b908152604080516020928190038301902060010180546001600160a01b0319166001600160a01b039490941693909317909255336000908152600d9091529081205490915015801590611b035750600c5415155b15611b0c575060015b80610a4357600c8054336000818152600d60205260408120839055600183018455929092527fdf6966c971051c3d54ec59162606531493a51404a002842f56009d7e5cf4a8c70180546001600160a01b0319169091179055505050565b611b7a611b74611f45565b83611fb7565b611b965760405162461bcd60e51b815260040161098b906134e1565b611ba284848484612464565b50505050565b336000908152601d6020908152604080832084845282528083206001600160a01b03861684529091529020546117f057336000908152601d6020908152604080832084845282528083206001600160a01b038616845282528083206001908190558484526012909252909120810154611c209161081a565b6000828152601260205260409020600101555050565b6060611c4182611f28565b611c5d5760405162461bcd60e51b815260040161098b906132ff565b60008281526006602052604081208054611c7690613612565b80601f0160208091040260200160405190810160405280929190818152602001828054611ca290613612565b8015611cef5780601f10611cc457610100808354040283529160200191611cef565b820191906000526020600020905b815481529060010190602001808311611cd257829003601f168201915b505050505090506000611d00612497565b9050805160001415611d145750905061088d565b815115611d46578082604051602001611d2e929190612ddf565b6040516020818303038152906040529250505061088d565b611d4f846124a9565b949350505050565b336000908152601e6020908152604080832084845282529182902080548351818402810184019094528084526060939283018282801561088557602002820191906000526020600020908154815260200190600101908083116108715750505050509050919050565b33611dca83610df8565b6001600160a01b031614611ddd57600080fd5b611de68261252c565b6000828152601760205260408120611dfd916128ac565b6000828152601860209081526040808320839055600f82528083208390553383526010825280832085845260118352818420548452825280832083905583835260139091529020805483908110611e6457634e487b7160e01b600052603260045260246000fd5b60009182526020822001555050565b6001600160a01b03918216600090815260056020908152604080832093909416825291909152205460ff1690565b611ea9611f45565b6001600160a01b0316611eba6117a3565b6001600160a01b031614611ee05760405162461bcd60e51b815260040161098b9061339c565b6001600160a01b038116611f065760405162461bcd60e51b815260040161098b90612fe7565b610c048161230e565b6001600160e01b031981166301ffc9a760e01b14919050565b6000908152600260205260409020546001600160a01b0316151590565b3390565b600081815260046020526040902080546001600160a01b0319166001600160a01b0384169081179091558190611f7e82610df8565b6001600160a01b03167f8c5be1e5ebec7d5bd14f71427d1e84f3dd0314c0f7b2291e5b200ac8c7c3b92560405160405180910390a45050565b6000611fc282611f28565b611fde5760405162461bcd60e51b815260040161098b90613116565b6000611fe983610df8565b9050806001600160a01b0316846001600160a01b031614806120245750836001600160a01b031661201984610964565b6001600160a01b0316145b80611d4f5750611d4f8185611e73565b826001600160a01b031661204782610df8565b6001600160a01b03161461206d5760405162461bcd60e51b815260040161098b906133d1565b6001600160a01b0382166120935760405162461bcd60e51b815260040161098b90613064565b61209e838383610a43565b6120a9600082611f49565b6001600160a01b03831660009081526003602052604081208054600192906120d29084906135cf565b90915550506001600160a01b03821660009081526003602052604081208054600192906121009084906135a3565b909155505060008181526002602052604080822080546001600160a01b0319166001600160a01b0386811691821790925591518493918716917fddf252ad1be2c89b69c2b068fc378daa952ba7f163c4a11628f55a4df523b3ef91a4505050565b61216961080a565b6121855760405162461bcd60e51b815260040161098b90612f67565b6007805460ff60a01b191690557f5db9ee0a495bf2e6ff9c91a7834c1ba4fdd244a5e8aa4e537bd38aeae4b073aa6121bb611f45565b6040516121c89190612e30565b60405180910390a1565b80546001019055565b5490565b6001600160a01b0382166122055760405162461bcd60e51b815260040161098b906132ca565b61220e81611f28565b1561222b5760405162461bcd60e51b815260040161098b9061302d565b61223760008383610a43565b6001600160a01b03821660009081526003602052604081208054600192906122609084906135a3565b909155505060008181526002602052604080822080546001600160a01b0319166001600160a01b03861690811790915590518392907fddf252ad1be2c89b69c2b068fc378daa952ba7f163c4a11628f55a4df523b3ef908290a45050565b6122c782611f28565b6122e35760405162461bcd60e51b815260040161098b9061327c565b60008281526006602090815260409091208251610a43928401906128ca565b600061082682846135cf565b600780546001600160a01b038381166001600160a01b0319831681179093556040519116919082907f8be0079c531659141344cd1fd0a4f28419497f9722a3daafe3b4186f6b6457e090600090a35050565b61236861080a565b156123855760405162461bcd60e51b815260040161098b90613162565b6007805460ff60a01b1916600160a01b1790557f62e78cea01bee320cd4e420270b5ea74000d11b0c9f74754ebdbfc544b05a2586121bb611f45565b816001600160a01b0316836001600160a01b031614156123f35760405162461bcd60e51b815260040161098b906130a8565b6001600160a01b0383811660008181526005602090815260408083209487168084529490915290819020805460ff1916851515179055517f17307eab39ab6107e8899845ad3d59bd9653f200f220920489ca2b5937696c3190612457908590612f49565b60405180910390a3505050565b61246f848484612034565b61247b8484848461256c565b611ba25760405162461bcd60e51b815260040161098b90612f95565b60408051602081019091526000815290565b60606124b482611f28565b6124d05760405162461bcd60e51b815260040161098b9061341a565b60006124da612497565b905060008151116124fa5760405180602001604052806000815250612525565b8061250484612687565b604051602001612515929190612ddf565b6040516020818303038152906040525b9392505050565b612535816127a2565b6000818152600660205260409020805461254e90613612565b159050610c04576000818152600660205260408120610c049161294a565b6000612580846001600160a01b0316612849565b1561267c57836001600160a01b031663150b7a0261259c611f45565b8786866040518563ffffffff1660e01b81526004016125be9493929190612e68565b602060405180830381600087803b1580156125d857600080fd5b505af1925050508015612608575060408051601f3d908101601f1916820190925261260591810190612bdb565b60015b612662573d808015612636576040519150601f19603f3d011682016040523d82523d6000602084013e61263b565b606091505b50805161265a5760405162461bcd60e51b815260040161098b90612f95565b805181602001fd5b6001600160e01b031916630a85bd0160e11b149050611d4f565b506001949350505050565b6060816126ac57506040805180820190915260018152600360fc1b602082015261088d565b8160005b81156126d657806126c08161364d565b91506126cf9050600a836135bb565b91506126b0565b60008167ffffffffffffffff8111156126ff57634e487b7160e01b600052604160045260246000fd5b6040519080825280601f01601f191660200182016040528015612729576020820181803683370190505b5090505b8415611d4f5761273e6001836135cf565b915061274b600a86613668565b6127569060306135a3565b60f81b81838151811061277957634e487b7160e01b600052603260045260246000fd5b60200101906001600160f81b031916908160001a90535061279b600a866135bb565b945061272d565b60006127ad82610df8565b90506127bb81600084610a43565b6127c6600083611f49565b6001600160a01b03811660009081526003602052604081208054600192906127ef9084906135cf565b909155505060008281526002602052604080822080546001600160a01b0319169055518391906001600160a01b038416907fddf252ad1be2c89b69c2b068fc378daa952ba7f163c4a11628f55a4df523b3ef908390a45050565b3b151590565b82805482825590600052602060002090810192821561289c579160200282015b8281111561289c578251805161288c9184916020909101906128ca565b509160200191906001019061286f565b506128a8929150612986565b5090565b5080546000825590600052602060002090810190610c049190612986565b8280546128d690613612565b90600052602060002090601f0160209004810192826128f8576000855561293e565b82601f1061291157805160ff191683800117855561293e565b8280016001018555821561293e579182015b8281111561293e578251825591602001919060010190612923565b506128a89291506129a3565b50805461295690613612565b6000825580601f106129685750610c04565b601f016020900490600052602060002090810190610c0491906129a3565b808211156128a857600061299a828261294a565b50600101612986565b5b808211156128a857600081556001016129a4565b60006129cb6129c68461357b565b613551565b90508281528383830111156129df57600080fd5b828260208301376000602084830101529392505050565b80356001600160a01b038116811461088d57600080fd5b600082601f830112612a1d578081fd5b610826838335602085016129b8565b600060208284031215612a3d578081fd5b610826826129f6565b60008060408385031215612a58578081fd5b612a61836129f6565b9150612a6f602084016129f6565b90509250929050565b600080600060608486031215612a8c578081fd5b612a95846129f6565b9250612aa3602085016129f6565b9150604084013590509250925092565b60008060008060808587031215612ac8578081fd5b612ad1856129f6565b9350612adf602086016129f6565b925060408501359150606085013567ffffffffffffffff811115612b01578182fd5b8501601f81018713612b11578182fd5b612b20878235602084016129b8565b91505092959194509250565b60008060408385031215612b3e578182fd5b612b47836129f6565b91506020830135612b57816136be565b809150509250929050565b60008060408385031215612b74578182fd5b612b7d836129f6565b946020939093013593505050565b600060208284031215612b9c578081fd5b8151612525816136be565b600060208284031215612bb8578081fd5b5035919050565b600060208284031215612bd0578081fd5b8135612525816136cc565b600060208284031215612bec578081fd5b8151612525816136cc565b600060208284031215612c08578081fd5b815167ffffffffffffffff811115612c1e578182fd5b8201601f81018413612c2e578182fd5b8051612c3c6129c68261357b565b818152856020838501011115612c50578384fd5b612c618260208301602086016135e6565b95945050505050565b600080600080600080600060e0888a031215612c84578485fd5b67ffffffffffffffff8089351115612c9a578586fd5b612ca78a8a358b01612a0d565b97506020890135965060408901359550606089013581811115612cc8578485fd5b612cd48b828c01612a0d565b9550506080890135935060a089013581811115612cef578384fd5b8901601f81018b13612cff578384fd5b803582811115612d1157612d116136a8565b612d1f602080830201613551565b818152602080820194508301865b83811015612d5a57612d458f60208435880101612a0d565b86526020958601959190910190600101612d2d565b50508095505050505060c0880135905092959891949750929550565b60008060408385031215612d88578182fd5b50508035926020909101359150565b60008151808452612daf8160208601602086016135e6565b601f01601f19169290920160200192915050565b60008251612dd58184602087016135e6565b9190910192915050565b60008351612df18184602088016135e6565b835190830190612e058183602088016135e6565b01949350505050565b6432ba3432b960d91b815260050190565b64564954544160d81b815260050190565b6001600160a01b0391909116815260200190565b6001600160a01b039384168152919092166020820152604081019190915260600190565b6001600160a01b0385811682528416602082015260408101839052608060608201819052600090612e9b90830184612d97565b9695505050505050565b6000602080830181845280855180835260408601915060408482028701019250838701855b82811015612ef857603f19888603018452612ee6858351612d97565b94509285019290850190600101612eca565b5092979650505050505050565b6020808252825182820181905260009190848201906040850190845b81811015612f3d57835183529284019291840191600101612f21565b50909695505050505050565b901515815260200190565b6000602082526108266020830184612d97565b60208082526014908201527314185d5cd8589b194e881b9bdd081c185d5cd95960621b604082015260600190565b60208082526032908201527f4552433732313a207472616e7366657220746f206e6f6e20455243373231526560408201527131b2b4bb32b91034b6b83632b6b2b73a32b960711b606082015260800190565b60208082526026908201527f4f776e61626c653a206e6577206f776e657220697320746865207a65726f206160408201526564647265737360d01b606082015260800190565b6020808252601c908201527f4552433732313a20746f6b656e20616c7265616479206d696e74656400000000604082015260600190565b60208082526024908201527f4552433732313a207472616e7366657220746f20746865207a65726f206164646040820152637265737360e01b606082015260800190565b60208082526019908201527f4552433732313a20617070726f766520746f2063616c6c657200000000000000604082015260600190565b60208082526019908201527f746f6b656e20696e646578206f7574206f6620626f756e647300000000000000604082015260600190565b6020808252602c908201527f4552433732313a206f70657261746f7220717565727920666f72206e6f6e657860408201526b34b9ba32b73a103a37b5b2b760a11b606082015260800190565b60208082526010908201526f14185d5cd8589b194e881c185d5cd95960821b604082015260600190565b60208082526038908201527f4552433732313a20617070726f76652063616c6c6572206973206e6f74206f7760408201527f6e6572206e6f7220617070726f76656420666f7220616c6c0000000000000000606082015260800190565b6020808252602a908201527f4552433732313a2062616c616e636520717565727920666f7220746865207a65604082015269726f206164647265737360b01b606082015260800190565b60208082526029908201527f4552433732313a206f776e657220717565727920666f72206e6f6e657869737460408201526832b73a103a37b5b2b760b91b606082015260800190565b6020808252602e908201527f45524337323155524953746f726167653a2055524920736574206f66206e6f6e60408201526d32bc34b9ba32b73a103a37b5b2b760911b606082015260800190565b6020808252818101527f4552433732313a206d696e7420746f20746865207a65726f2061646472657373604082015260600190565b60208082526031908201527f45524337323155524953746f726167653a2055524920717565727920666f72206040820152703737b732bc34b9ba32b73a103a37b5b2b760791b606082015260800190565b6020808252602c908201527f4552433732313a20617070726f76656420717565727920666f72206e6f6e657860408201526b34b9ba32b73a103a37b5b2b760a11b606082015260800190565b6020808252818101527f4f776e61626c653a2063616c6c6572206973206e6f7420746865206f776e6572604082015260600190565b60208082526029908201527f4552433732313a207472616e73666572206f6620746f6b656e2074686174206960408201526839903737ba1037bbb760b91b606082015260800190565b6020808252602f908201527f4552433732314d657461646174613a2055524920717565727920666f72206e6f60408201526e3732bc34b9ba32b73a103a37b5b2b760891b606082015260800190565b60208082526021908201527f4552433732313a20617070726f76616c20746f2063757272656e74206f776e656040820152603960f91b606082015260800190565b60208082526019908201527f6f776e657220696e646578206f7574206f6620626f756e647300000000000000604082015260600190565b60208082526031908201527f4552433732313a207472616e736665722063616c6c6572206973206e6f74206f6040820152701ddb995c881b9bdc88185c1c1c9bdd9959607a1b606082015260800190565b90815260200190565b9283526020830191909152604082015260600190565b60405181810167ffffffffffffffff81118282101715613573576135736136a8565b604052919050565b600067ffffffffffffffff821115613595576135956136a8565b50601f01601f191660200190565b600082198211156135b6576135b661367c565b500190565b6000826135ca576135ca613692565b500490565b6000828210156135e1576135e161367c565b500390565b60005b838110156136015781810151838201526020016135e9565b83811115611ba25750506000910152565b60028104600182168061362657607f821691505b6020821081141561364757634e487b7160e01b600052602260045260246000fd5b50919050565b60006000198214156136615761366161367c565b5060010190565b60008261367757613677613692565b500690565b634e487b7160e01b600052601160045260246000fd5b634e487b7160e01b600052601260045260246000fd5b634e487b7160e01b600052604160045260246000fd5b8015158114610c0457600080fd5b6001600160e01b031981168114610c0457600080fdfea26469706673582212203f4301c3bb460fb98d784b293827012cc055a58de0f309f424fd58f27b38318564736f6c63430008000033",
  "immutableReferences": {},
  "source": "// Lukup streaming content\r\n// (c) Kallol Borah, 2022\r\n\r\n//\"SPDX-License-Identifier: MIT\"\r\n\r\npragma solidity 0.8.0;\r\n\r\nimport \"@openzeppelin/contracts/access/Ownable.sol\";\r\nimport \"@openzeppelin/contracts/security/Pausable.sol\";\r\nimport \"@openzeppelin/contracts/utils/Counters.sol\";\r\nimport \"@openzeppelin/contracts/utils/math/SafeMath.sol\";\r\nimport \"@openzeppelin/contracts/token/ERC20/ERC20.sol\";\r\nimport \"@openzeppelin/contracts/token/ERC721/extensions/ERC721URIStorage.sol\";\r\n\r\nimport \"./IContent.sol\";\r\n\r\ncontract Content is IContent, ERC721URIStorage, Ownable, Pausable {\r\n\r\n    using SafeMath for uint256;\r\n\r\n    using Counters for Counters.Counter;\r\n    Counters.Counter private _tokenIds;\r\n    \r\n    uint256 private term;\r\n\r\n    // Tokens (eg, USDC, DAI, Ether, etc) that are staked by creators, advertisers and verifiers\r\n    address[] private StakingTokens;\r\n\r\n    // Mapping of staked tokens to their index\r\n    mapping(address => uint256) private StakingTokensIndex;\r\n\r\n    // Liquidity providers that stake tokens\r\n    address[] private LPs;\r\n\r\n    // Mapping of liquidity providers to their index\r\n    mapping(address => uint256) private LPIndex;\r\n    \r\n    // All content token ids\r\n    uint256[] private allTokens;\r\n\r\n    // Mapping from content token id to position in the allTokens array\r\n    mapping(uint256 => uint256) private allTokensIndex;\r\n\r\n    // Mapping from owner to list of owned content token IDs to content ID added\r\n    mapping(address => mapping(uint256 => uint256)) private ownedTokens;\r\n\r\n    // Mapping from content token ID to its position in the index of owned content ids\r\n    mapping(uint256 => uint256) private ownedTokensIndex;\r\n\r\n    // Mapping content ids to views, shares, and purchases of content\r\n    mapping(uint256 => Item) private content;\r\n\r\n    // Mapping content category to content ids in it\r\n    mapping(bytes32 => uint256[]) private categories;\r\n\r\n    // Mapping content ids to content type (eg, PPV, FREE) to its price (if its PPV) in Lukup tokens\r\n    mapping(uint256 => mapping(bytes32 => uint256)) private pricing;\r\n\r\n    // Mapping content creators and advertisers to staked tokens\r\n    mapping(address => mapping(string => Stake)) private creators;\r\n\r\n    // Mapping stakers to staked tokens to stakes\r\n    mapping(address => mapping(string => uint256)) private stakes;\r\n\r\n    // Mapping content ids to key shards\r\n    mapping(uint256 => string[]) private keys;\r\n\r\n    // Mapping content ids to quorum\r\n    mapping(uint256 => uint256) private quorum;\r\n\r\n    // Mapping content ids to subscribers to time of subscription\r\n    mapping(uint256 => mapping(address => uint256)) private subscriptions;\r\n\r\n    // Mapping users to revenue category to earnings\r\n    mapping(address => mapping(bytes32 => uint256)) private categoryEarnings;\r\n\r\n    // Mapping users to content id to earnings\r\n    mapping(address => mapping(uint256 => uint256)) private itemEarnings;\r\n\r\n    // Mapping advertisers to ad id to expenses\r\n    mapping(address => mapping(uint256 => uint256)) private adExpenses;\r\n\r\n    // Mapping users to content ids to other users they share it with\r\n    mapping(address => mapping(uint256 => mapping(address => uint256))) private shares;\r\n\r\n    // Mapping advertisers to ad ids to content ids that ads display on\r\n    mapping(address => mapping(uint256 => uint256[])) private adViews;\r\n\r\n    constructor () ERC721 (\"Lukup Stream\", \"LUKUP\"){\r\n    }\r\n\r\n    function createContent( string memory tokenURI, \r\n                            bytes32 pricingModel, \r\n                            uint256 price, \r\n                            string memory stakedToken, \r\n                            uint256 staked,\r\n                            string[] memory shards,\r\n                            uint256 keyquorum) override external returns (uint256) {\r\n        require(creators[msg.sender][stakedToken].tokenAmount >= staked);\r\n        _tokenIds.increment();\r\n        uint256 newItemId = _tokenIds.current();\r\n        _mint(msg.sender, newItemId);\r\n        _setTokenURI(newItemId, tokenURI);\r\n        categories[pricingModel].push(newItemId);\r\n        allTokensIndex[newItemId] = allTokens.length;\r\n        allTokens.push(newItemId);\r\n        ownedTokens[msg.sender][ERC721.balanceOf(msg.sender)] = newItemId;\r\n        ownedTokensIndex[newItemId] = ERC721.balanceOf(msg.sender);\r\n        pricing[newItemId][pricingModel] = price;\r\n        stakes[msg.sender][stakedToken] = staked;\r\n        keys[newItemId] = shards;\r\n        quorum[newItemId] = keyquorum;\r\n        SafeMath.sub(creators[msg.sender][stakedToken].tokenAmount, staked);\r\n        return newItemId;\r\n    }\r\n\r\n    function tokenOfOwnerByIndex(address owner, uint256 index) external view override returns (uint256) {\r\n        require(index < ERC721.balanceOf(owner), \"owner index out of bounds\");\r\n        return ownedTokens[owner][index];\r\n    }\r\n\r\n    function totalSupply() external view override returns (uint256) {\r\n        return allTokens.length;\r\n    }\r\n\r\n    function tokenByIndex(uint256 index) external view override returns (uint256) {\r\n        require(index < allTokens.length, \"token index out of bounds\");\r\n        return allTokens[index];\r\n    }\r\n\r\n    function removeContent(uint256 contentId, bytes32 category) override external {\r\n        require(ownerOf(contentId)==msg.sender);\r\n        _burn(contentId);       \r\n        delete keys[contentId];\r\n        delete quorum[contentId];\r\n        delete allTokensIndex[contentId];\r\n        delete ownedTokens[msg.sender][ownedTokensIndex[contentId]];\r\n        delete categories[category][contentId];\r\n    }\r\n\r\n    function supportTokens(address _token) override external {\r\n        require(msg.sender==owner());\r\n        StakingTokensIndex[_token] = StakingTokens.length;\r\n        StakingTokens.push(_token);\r\n    }\r\n\r\n    function checkSupportForToken(address _token) override external view returns(bool){\r\n        if(StakingTokensIndex[_token] > 0 && StakingTokens.length > 0){\r\n            return true;\r\n        }\r\n        else\r\n            return false;\r\n    }\r\n\r\n    receive() external payable{\r\n        //ether paid in\r\n        require(msg.value !=0);\r\n        //contract must not be paused\r\n        require(paused() == false);\r\n        creators[msg.sender][\"ether\"].tokenAmount = SafeMath.add(creators[msg.sender][\"ether\"].tokenAmount, msg.value);\r\n        bool found = false;\r\n        if(LPIndex[msg.sender] >0 && LPs.length > 0)\r\n            found = true;\r\n        if(!found){\r\n            LPIndex[msg.sender] = LPs.length;\r\n            LPs.push(msg.sender);\r\n        }\r\n    }\r\n\r\n    function stake(address _token, uint256 _amount) override external {\r\n        require(paused() == false);\r\n        bool found = false;\r\n        if(StakingTokensIndex[_token] > 0 && StakingTokens.length > 0)\r\n            found = true;\r\n        if(found){\r\n            if(IERC20(_token).transferFrom(msg.sender, address(this), _amount)){\r\n                creators[msg.sender][ERC20(_token).name()].tokenAmount = SafeMath.add(creators[msg.sender][ERC20(_token).name()].tokenAmount, _amount);\r\n                creators[msg.sender][ERC20(_token).name()].tokenAddress = _token;\r\n                found = false;\r\n                if(LPIndex[msg.sender] >0 && LPs.length > 0)\r\n                    found = true;\r\n                if(!found){\r\n                    LPIndex[msg.sender] = LPs.length;\r\n                    LPs.push(msg.sender);\r\n                }\r\n            }\r\n        }\r\n    }\r\n\r\n    function fetchContentByCategory(bytes32 category) override external view returns(uint256[] memory){\r\n        return categories[category];\r\n    }\r\n\r\n    function subscribe(uint256 contentId) override external {\r\n        if(stakes[msg.sender][\"VITTA\"] > pricing[contentId][\"PPV\"]){\r\n            subscriptions[contentId][msg.sender] = block.timestamp;\r\n            content[contentId].bought = SafeMath.add(content[contentId].bought, 1);\r\n            categoryEarnings[ownerOf(contentId)][\"PPV\"] = SafeMath.add(categoryEarnings[ownerOf(contentId)][\"PPV\"], pricing[contentId][\"PPV\"]);\r\n            itemEarnings[ownerOf(contentId)][contentId] = SafeMath.add(itemEarnings[ownerOf(contentId)][contentId], pricing[contentId][\"PPV\"]);\r\n        }\r\n    }\r\n\r\n    function viewContent(uint256 contentId) override external returns(string[] memory){\r\n        if(pricing[contentId][\"PPV\"]>0){\r\n            if(block.timestamp > SafeMath.add(subscriptions[contentId][msg.sender], term)){\r\n                content[contentId].views = SafeMath.add(content[contentId].views, 1);\r\n                return (keys[contentId]);\r\n            }\r\n        }\r\n        else if(pricing[contentId][\"FREE\"]==0){\r\n            content[contentId].views = SafeMath.add(content[contentId].views, 1);\r\n            return (keys[contentId]);\r\n        }\r\n        return (new string[](1));\r\n    }\r\n\r\n    function viewAd(uint256 adId, uint256 contentId) override external returns(string[] memory){\r\n        if(pricing[adId][\"AD\"]>0 && pricing[contentId][\"FREE\"]==0){\r\n            if(block.timestamp > SafeMath.add(subscriptions[contentId][msg.sender], term)){\r\n                content[adId].views = SafeMath.add(content[adId].views, 1);\r\n                categoryEarnings[ownerOf(contentId)][\"FREE\"] = SafeMath.add(categoryEarnings[ownerOf(contentId)][\"FREE\"], pricing[adId][\"AD\"]);\r\n                itemEarnings[ownerOf(contentId)][contentId] = SafeMath.add(itemEarnings[ownerOf(contentId)][contentId], pricing[adId][\"AD\"]);\r\n                adExpenses[ownerOf(adId)][adId] = SafeMath.add(adExpenses[ownerOf(adId)][adId], pricing[adId][\"AD\"]);\r\n                adViews[ownerOf(adId)][adId].push(contentId);\r\n                return (keys[adId]);\r\n            }\r\n        }\r\n        return (new string[](1));\r\n    }\r\n\r\n    function shareContent(address sharedWith, uint256 contentId) override external {\r\n        if(shares[msg.sender][contentId][sharedWith]==0){\r\n            shares[msg.sender][contentId][sharedWith]=1;\r\n            content[contentId].shares = SafeMath.add(content[contentId].shares, 1);\r\n        }\r\n    }\r\n\r\n    function fetchEarningsbyCategory(bytes32 category) override external view returns(uint256){\r\n        return (categoryEarnings[msg.sender][category]);\r\n    } \r\n\r\n    function fetchEarningsForItem(uint256 contentId) override external view returns(uint256){\r\n        return (itemEarnings[msg.sender][contentId]);\r\n    }\r\n\r\n    function fetchExpensesForAd(uint256 adId) override external view returns(uint256){\r\n        return (adExpenses[msg.sender][adId]);\r\n    }\r\n\r\n    function viewPerformance(uint256 contentId) override external view returns(uint256, uint256, uint256){\r\n        return (content[contentId].views, content[contentId].shares, content[contentId].bought);\r\n    }\r\n\r\n    function viewDelivery(uint256 adId) override external view returns(uint256[] memory){\r\n        return (adViews[msg.sender][adId]);\r\n    }\r\n\r\n    function setLicenseTerm(uint256 time) override external{\r\n        require(msg.sender == owner());\r\n        term = time;\r\n    }\r\n\r\n    function pause() public {\r\n        require(msg.sender == owner());\r\n        _pause();\r\n    }\r\n    \r\n    function unpause() public {\r\n        require(msg.sender == owner());\r\n        _unpause();\r\n    }\r\n\r\n}",
  "sourcePath": "D:\\Lukup\\Code\\stream-contracts\\contracts\\Content.sol",
  "compiler": {
    "name": "solc",
    "version": "0.8.0+commit.c7dfd78e.Emscripten.clang"
  },
  "schemaVersion": "3.4.3",
  "updatedAt": "2022-01-10T11:37:50.869Z",
  "networkType": "ethereum",
  "devdoc": {
    "kind": "dev",
    "methods": {
      "approve(address,uint256)": {
        "details": "See {IERC721-approve}."
      },
      "balanceOf(address)": {
        "details": "See {IERC721-balanceOf}."
      },
      "getApproved(uint256)": {
        "details": "See {IERC721-getApproved}."
      },
      "isApprovedForAll(address,address)": {
        "details": "See {IERC721-isApprovedForAll}."
      },
      "name()": {
        "details": "See {IERC721Metadata-name}."
      },
      "owner()": {
        "details": "Returns the address of the current owner."
      },
      "ownerOf(uint256)": {
        "details": "See {IERC721-ownerOf}."
      },
      "paused()": {
        "details": "Returns true if the contract is paused, and false otherwise."
      },
      "renounceOwnership()": {
        "details": "Leaves the contract without owner. It will not be possible to call `onlyOwner` functions anymore. Can only be called by the current owner. NOTE: Renouncing ownership will leave the contract without an owner, thereby removing any functionality that is only available to the owner."
      },
      "safeTransferFrom(address,address,uint256)": {
        "details": "See {IERC721-safeTransferFrom}."
      },
      "safeTransferFrom(address,address,uint256,bytes)": {
        "details": "See {IERC721-safeTransferFrom}."
      },
      "setApprovalForAll(address,bool)": {
        "details": "See {IERC721-setApprovalForAll}."
      },
      "supportsInterface(bytes4)": {
        "details": "See {IERC165-supportsInterface}."
      },
      "symbol()": {
        "details": "See {IERC721Metadata-symbol}."
      },
      "tokenURI(uint256)": {
        "details": "See {IERC721Metadata-tokenURI}."
      },
      "transferFrom(address,address,uint256)": {
        "details": "See {IERC721-transferFrom}."
      },
      "transferOwnership(address)": {
        "details": "Transfers ownership of the contract to a new account (`newOwner`). Can only be called by the current owner."
      }
    },
    "version": 1
  },
  "userdoc": {
    "kind": "user",
    "methods": {},
    "version": 1
  }
}